:020000040000fa
:080000000001040000000000f3
:020000040000fa
:10020000ef8520000e7f21000e0188000000000015
:100210000c000700006d2000010020001100070005
:10022000000020000000e000020032000000020098
:10023000000000006c060200000000000040da0030
:100240000000fe004440a900000020000000e00083
:100250000300320000002000a00188004440a800f4
:100260000000060091018800800078000000eb008b
:1002700015003700e280400032a0b4009101ba00be
:10028000e280400032a0b4009102ba00e280400057
:1002900032a0b4000002eb00472bde00f507b200ed
:1002a000602ce10004003a000059eb008301e900f2
:1002b000fdff3e00040037006128e100010032002c
:1002c0000082eb00040007001101ba000200e00008
:1002d000e8ff3a00000006003159ba008301e90046
:1002e0000c0032002159ba008301e90008003200f5
:1002f0000400e00003003a00e280400032a0b400b5
:10030000f5ff370011d9ba008301e900faff3a007e
:100310008100e800e180400032a0b4000000060047
:080320000040da000000fe00bd
:020000040000fa
:1000080090010000900100009001000090010000a4
:100018009001000090010000900100009001000094
:100028009001000090010000900100009001000084
:100038009001000090010000900100009001000074
:100048009001000090010000900100009001000064
:100058009001000090010000900100009001000054
:100068009001000090010000900100009001000044
:100078009001000090010000900100009001000034
:100088009001000090010000900100009001000024
:100098009001000090010000900100009001000014
:1000a8009001000090010000900100009001000004
:1000b80090010000900100009001000090010000f4
:1000c80090010000900100009001000090010000e4
:1000d80090010000900100009001000090010000d4
:1000e80090010000900100009001000090010000c4
:0800f8009001000090010000de
:020000040000fa
:1001080090010000900100009001000090010000a3
:100118009001000090010000900100009001000093
:100128009001000090010000900100009001000083
:100138009001000090010000900100009001000073
:100148009001000090010000900100009001000063
:100158009001000090010000900100009001000053
:100168009001000090010000900100009001000043
:100178009001000090010000900100009001000033
:100188009001000090010000900100009001000023
:100198009001000090010000900100009001000013
:1001a8009001000090010000900100009001000003
:1001b80090010000900100009001000090010000f3
:1001c80090010000900100009001000090010000e3
:1001d80090010000900100009001000090010000d3
:1001e80090010000900100009001000090010000c3
:0801f8009001000090010000dd
:020000040000fa
:100328000600fa00200798000000eb00100798006c
:100338000a0037000000eb00000f780001003700ca
:100348001e0fe800a04f20009e0f1000fcff360093
:100358001e0090000000e800100798009e00900022
:100368002e009000808f5000f2ff39000080fa00c4
:10037800000006000400fa00000f7800110798003a
:100388000000eb00b01c88008760a9001e00780000
:10039800c01c88001e009000674060006740600035
:1003a80067406000674060004401dd00110a2000da
:1003b80091407800f0c8b30000c0600002407000af
:1003c800a1e0b7001e009000680060004300de0056
:1003d80061406000614060004301dd00f1082000d9
:1003e8009140780070cfb30000c0600002407000f8
:1003f8008fe0b7000080fa00000006000200fa0053
:10040800000f78001e007800801c88000080fa0029
:10041800000006000c00fa00204798002107980009
:1004280032079800430798003e009000ce009000e5
:100438004008de0001002000000f78002e409000e8
:100448000000fb00500798005e0090000000e000ec
:10045800040032005e009000e10f500008003200f6
:100468000e0037002e009000801988001e007800ca
:10047800901988003e009000a01988000d003700f0
:100488002e009000c01988001e007800d01988003e
:100498003e009000e0198800060037002e0090000a
:1004a800801988001e007800901988003e0090008e
:1004b800a01988000080fa00000006000c00fa006d
:1004c80020479800210798003207980043079800b2
:1004d8003e009000ce0090004008de0001002000a1
:1004e800000f78002e4090000000fb005007980095
:1004f8005e009000e20f5000220032005e00900083
:10050800e20f500007003c005e0090000000e00091
:100518000e0032005e009000e10f50001200320021
:10052800340037005e009000e40f500023003200d2
:100538005e009000e40f5000190035005e00900046
:10054800e50f5000240032002a0037002e009000ea
:10055800001888001e007800101888003e009000df
:1005680020188800290037002e00900040188800c5
:100578001e007800501888003e009000601888001f
:10058800220037002e009000801888001e00780096
:10059800901888003e009000a01888001b003700c3
:1005a8002e009000c01888001e007800d01888001f
:1005b8003e009000e0188800140037002e009000dc
:1005c800001988001e007800101988003e0090006d
:1005d800201988000d0037002e009000401988006f
:1005e8001e007800501988003e00900060198800ad
:1005f800060037002e009000001888001e007800c2
:10060800101888003e009000201888000080fa002a
:10061800000006001400fa0020079800320798002e
:100628004307980051079800444f9800554f980089
:100638003e009000ce0090004008de00010020003f
:10064800000f78005e4890000000fb00100f980033
:100658001e089000e10f50000e0032001e089000a6
:10066800e20f5000120032001e0890000000e00067
:1006780001003200150037002e009000001b880092
:100688001e007800101b88003e009000201b880088
:10069800140037002e009000801a88001e00780091
:1006a800901a88003e009000a01a88000d003700bc
:1006b8002e009000001a88001e007800101a88008a
:1006c8003e009000201a8800060037002e00900097
:1006d800001b88001e007800101b88003e00900058
:1006e800201b88000000eb00100798003b00370033
:1006f8005e4890000000fb00000f98000e08900074
:10070800e10f5000120032000e089000e20f500076
:100718001a0032000e0890000000e00001003200cc
:10072800210037001e00900080007800603620000d
:10073800008140001e009000800078005e0090005c
:100748000080400010407800004978002000370001
:100758001e00900080007800603520000081400075
:100768001e009000800078005e009000008040002d
:100778001040780000497800150037001e009000ee
:100788008000780060342000008140001e00900046
:10079800800078005e0090000080400010407800e3
:1007a800004978000a0037001e0090008000780099
:1007b80060362000008140001e0090008000780014
:1007c8005e009000008040001040780000497800ea
:1007d8001e0090000000e800100798004e489000a6
:1007e8008080fb001e009000808f5000c0ff3c00fe
:1007f8005e4890000000fb00700798007e009000a3
:10080800e10f5000130032007e009000e20f50000c
:100818001c0032007e0090000000e0000100320061
:10082800240037004e4890006f4060006f40600021
:100838004301dd00413620009140780070c8b300c4
:1008480000c060000240700064e3b7006e63a80057
:10085800230037004e4890006f4060006f406000f2
:100868004301dd00413520009140780070c8b30095
:1008780000c060000240700054e3b7005e63a80047
:10088800170037004e4890006f4060006f406000ce
:100898004301dd00413420009140780070c8b30066
:1008a80000c060000240700044e3b7004e63a80037
:1008b8000b0037004e4890006f4060006f406000aa
:1008c8004301dd00413620009140780070c8b30034
:1008d80000c060000240700064e3b7006e63a800c7
:1008e8000080fa00000006001800fa00100f9800b7
:1008f80041579800525798006000b80010079800b8
:10090800210798005e5090000000fb00300f98000f
:100918003e0890000000e00004003200be0890008d
:10092800e18f50005b003200b3003700001c8000ec
:100938000100200070079800010f9800101c80002b
:10094800010020005007980061079800201c8000d3
:100958000100200030079800410798007e009000b1
:100968008e0890004e09dd004200de000000710094
:10097800c208de0070079800010f98007e00900002
:100988008e089000c200dd0000002000700798006b
:10099800010f98007e0090008e08900010079800c4
:1009a800210798005e009000ee0090004609dd00e7
:1009b800ca00de00810071004600dd005007980083
:1009c800610798001e019000ae0190005e00900043
:1009d800ee009000000071008180710010079800ff
:1009e800210798003e009000ce009000c509dd0068
:1009f8004b00de0000807100cb08de003007980055
:100a0800410798001e019000ae0190003e00900042
:100a1800ce009000000071008180710010079800de
:100a2800210798001e0890001e019000ae0190005a
:100a38000288be0084c3bf006f4060008040780019
:100a48001e089000414098000000eb00000f78005d
:100a58000b0037009e0178001e00780080007800a7
:100a68006038200000804000104178009e08900007
:100a78006480410001004000124098001e0fe80009
:100a88004e5090000080fb009e0f5000f1ff3c008c
:100a980059003700801b8000010020007007980073
:100aa800010f9800901b800001002000500798005b
:100ab80061079800a01b8000010020003007980003
:100ac800410798007e0090008e089000ce09dd0056
:100ad8004200de0000807100c208de007007980046
:100ae800010f98007e0090008e089000c200dd0083
:100af8000000200070079800010f98007e00900009
:100b08008e08900010079800210798005e0090005a
:100b1800ee0090004609dd00ca00de008100710089
:100b28004600dd0050079800610798001e019000fc
:100b3800ae0190005e009000ee0090000000710091
:100b48008180710010079800210798003e009000ee
:100b5800ce009000c509dd004b00de00008071006a
:100b6800cb08de0030079800410798001e0190006e
:100b7800ae0190003e009000ce0090000000710091
:100b88008180710010079800210798001e089000c6
:100b98001e019000ae0190000288be0074c3bf0021
:100ba8006f406000804078001e0890004140980027
:100bb8000000eb00000f78000b0037009e01780062
:100bc8001e00780080007800603720000080400018
:100bd800104178009e0890006480410001004000a8
:100be800124098001e0fe8004e5090000080fb0055
:100bf8009e0f5000f1ff3c000080fa000000060044
:100c08000600fa00004f78001e00fb00200798003d
:100c18002e009000e10f50000f0032002e009000cf
:100c2800e20f5000140032002e0090000000e00097
:100c380001003200180037006ec3bf000080fb00bf
:100c48004300de000004a2000000fb006100600019
:100c580010079800120037005ec3bf000080fb0039
:100c68004300de000004a2000000fb0061006000f9
:100c7800100798000a0037004ec3bf000080fb0031
:100c88004300de000004a2000000fb0061006000d9
:100c980010079800020037000000eb0010079800ca
:100ca8001e0090000080fa00000006000400fa0010
:100cb800000f7800110798001e007800901c88002b
:100cc8001e009000a01c88000080fa0000000600aa
:100cd8000000fa00d00f2000f0168800113920001b
:100ce8009140780080cfb30000c060000024a000cd
:100cf80091e3b700013920009140780000ceb3009d
:100d080080c0600000c8b30080cf5000f9ff3a00ef
:100d18006011b8008000eb0000c3b300bdfd070000
:100d28000000eb00901c880060082000a01c8800d0
:100d380000802800801c88008000eb00f00f200055
:100d48008cfd0700113920009140780080cfb30056
:100d580000c0600091e3b70090c3bf0001ceb300ac
:100d6800014060000004e000fbff3a000041eb0096
:100d780081c0b30000852000dbfe0700400620008c
:100d880067fd07004006200065fd070040062000bb
:080d980063fd0700f5ff3700c1
:020000040000fa
:100da000500800000e0000000000000000000000dd
:00000001FF
