:020000040000fa
:080000000001040000000000f3
:020000040000fa
:100200000f8720000e7f21000e01880000000000f3
:100210000c00070040aa2000010020001100070088
:10022000000020000000e000020032000000020098
:1002300000000000560a0200000000000040da0042
:100240000000fe004440a900000020000000e00083
:100250000300320000002000a00188004440a800f4
:100260000000060091018800800078000000eb008b
:1002700015003700e280400032a0b4009101ba00be
:10028000e280400032a0b4009102ba00e280400057
:1002900032a0b4000002eb00472bde00f507b200ed
:1002a000602ce10004003a000059eb008301e900f2
:1002b000fdff3e00040037006128e100010032002c
:1002c0000082eb00040007001101ba000200e00008
:1002d000e8ff3a00000006003159ba008301e90046
:1002e0000c0032002159ba008301e90008003200f5
:1002f0000400e00003003a00e280400032a0b400b5
:10030000f5ff370011d9ba008301e900faff3a007e
:100310008100e800e180400032a0b4000000060047
:100320000040da000000fe0003f0a200889fbe003b
:100330008a9fbe008c1f7800ea000700f10033009e
:100340006450e1004f0032006420e10052003200ae
:1003500003826c0007003b000905d0000306d000b3
:10036000820f54000c065d000200390002003200ca
:1003700089017800030678008582550004003d005d
:100380000003fd008103fd008502ea008b85420029
:10039000840f720002003b0060001000e080180033
:1003a0006011b8000005eb007a28e1000a0039006e
:1003b00006007800c75ddd00f707b2008780750092
:1003c0002d003700828171000a017800610560000c
:1003d0008180d1000080d3008502e900f9ff3b0055
:1003e000060440008784480002003b0060041400bb
:1003f000e0841c000988a300070032008a81710094
:1004000082817100610164008904d1000884d300f5
:100410008b05e800170037000978a30013003a00a5
:100420000b00e000130034008b05e90008044400d1
:1004300089844c000a4474000978a3000d003a0036
:100440000b00e000070034008b05e90008044400bd
:1004500089844c0001003a000b0020000978a300b9
:10046000f7ff32000001eb000200370082817100cb
:100470000a017800b30007000cf0a70001f0a0000b
:10048000a90037006420e10002003a00838f6c006d
:10049000a90033000801be000200be00a200370020
:1004a0000001be00cd0007000470a70003f0a1000a
:1004b00003f8a30013003a006509b10010003200f0
:1004c000090035006928e10002003500010028001c
:1004d0000000050000004000818048008502e9001e
:1004e000fcff3a0000000600f88f420005003500ce
:1004f0008100d1000080d3008502e800fcff3a00b3
:10050000000006008000eb0000000500889fbe0090
:100510008a9fbe008c1f78007200070079003300ac
:1005200003866c006450e1002e0032006420e1007c
:10053000330032006150e1002f0032006120e10001
:100540003100320085855500eb07b000090020001e
:1005500008042000050037000804440089844c008a
:100560000a0031000603430087834b00000153005b
:1005700081815b00f8ff33000203be000800a00089
:100580000804440089844c00f6ff3900c639dd00b8
:100590008301730001003200130020008904d100a0
:1005a0000884d3000998a300050032000800a700c2
:1005b0000300a0008904d1000884d3008b05e80063
:1005c0008904d1000884d3000001eb000281d2002d
:1005d0005c00070001f0a1000cf0a70001f0a000f2
:1005e000510037006420e100530032000801be00d2
:1005f0000200be00f7ff37006120e1004e0032002c
:100600006000b800f3ff37000000200001f8270069
:10061000f0ff3700889fbe008a9fbe008c1f7800c5
:10062000300007003700330003866c006450e1009f
:10063000240032006420e100270032006150e10014
:10064000220032006120e100210032008b8542004f
:10065000eb07b1000134b800003ab80008044200ca
:1006600089844a00013ab8000030b8008880400010
:1006700009014a0004003300000040008180480066
:10068000020149008b05e900c909dd008301700002
:100690000100320013002000c814de004814dd0001
:1006a0004709de001200b200c808de0008847000ae
:1006b0002400070001f0a1000cf0a70001f0a00049
:1006c000190037006120e1001b0032000801be0064
:1006d0000200be00f7ff37006150e100fcff3a0066
:1006e000150037000004be003c0007000003be00f8
:1006f0000405be000200be0038000700844f7500ec
:10070000000006000200be006450e1000500360053
:100710006420e100020036000968a30001003a00ed
:100720000800be000160a0004f0678004f05be0023
:100730004f04be0000000600f0ff2f00f1ff27006d
:10074000f9ff370081002000618055000b003d005b
:100750000b00200061fe2f000100e1001d003400ad
:1007600082817100610164008904d1000884d30092
:100770000000e800faff3a00710020006100640008
:1007800003007000020060000900320061044400b0
:10079000e0844c000988a500050032008b05e800c4
:1007a0006808e10002003a008904d1000884d300ff
:1007b000f20f20000258e10005003d00c75ddd009a
:1007c000f907b20089807500080078000000060073
:1007d0000bf827008b00780000000500c70ade0038
:1007e000f107b200f50fb20008003200e1cf42007d
:1007f000020032000170a00024000500810f70008b
:10080000010032000408050044000500810f70005b
:1008100002003a00140005008502e90000004000d3
:1008200081c04800fcff3b000170a00024000500cf
:020000040000fa
:0200000401f009
:04000000f5bf000048
:020000040000fa
:0200000401f009
:04000400ff7f00007a
:020000040000fa
:0200000401f009
:040008007fff000076
:020000040000fa
:0200000401f009
:04001400ffff0000ea
:020000040000fa
:1000080090010000900100009001000090010000a4
:100018009001000090010000900100009001000094
:100028009001000090010000900100009001000084
:100038009001000090010000900100009001000074
:100048009001000090010000900100009001000064
:100058009001000090010000900100009001000054
:100068009001000090010000900100009001000044
:100078009001000090010000900100009001000034
:100088009001000090010000900100009001000024
:100098009001000090010000900100009001000014
:1000a8009001000090010000900100009001000004
:1000b80090010000900100009001000090010000f4
:1000c80090010000900100009001000090010000e4
:1000d80090010000900100009001000090010000d4
:1000e80090010000900100009001000090010000c4
:0800f8009001000090010000de
:020000040000fa
:1001080090010000900100009001000090010000a3
:100118009001000090010000900100009001000093
:100128009001000090010000900100009001000083
:100138009001000090010000900100009001000073
:100148009001000090010000900100009001000063
:100158009001000090010000900100009001000053
:100168009001000090010000900100009001000043
:100178009001000090010000900100009001000033
:100188009001000090010000900100009001000023
:100198009001000090010000900100009001000013
:1001a8009001000090010000900100009001000003
:1001b80090010000900100009001000090010000f3
:1001c80090010000900100009001000090010000e3
:1001d80090010000900100009001000090010000d3
:1001e80090010000900100009001000090010000c3
:0801f8009001000090010000dd
:020000040000fa
:100830000600fa00200798000000eb00100798005f
:100840000a0037000000eb00000f780001003700bd
:100850001e0fe800a04f20009e0f1000fcff360086
:100860001e0090000000e800100798009e00900015
:100870002e009000808f5000f2ff39000080fa00b7
:10088000000006000000fa001139200091407800b5
:1008900080cfb30000c060000024a00091e3b70047
:1008a000013920009140780000ceb30080c0600084
:1008b00000c8b30080cf5000f9ff3a000080fa0072
:1008c000000006000000fa00213920009140780065
:1008d00000ccb30000c060000004a00092e3b700a9
:1008e000213920009140780000ccb30000c0700096
:1008f00092e3b70094c3bf007040b30094e3b70025
:10090000413920009140780070ccb30000c06000f5
:1009100081c2b3000140700094e3b70094c3a90002
:1009200094e3a800513920009140780080cfb300b3
:1009300000c060000024a00095e3b700000028007c
:10094000801c880090c3bf0001ceb300014060004e
:100950000004e000fbff3a000080fa0000000600ff
:100960000800fa00004f780012079800230798004b
:100970001e80fb00300798003e009000e20f500000
:10098000300032003e009000e20f500007003c00b3
:100990003e0090000000e0000e0032003e0090009b
:1009a000e10f5000190032005e0037003e00900059
:1009b000e40f50003f0032003e009000e40f500072
:1009c0002e0035003e009000e50f50004700320039
:1009d000540037000000eb00001888009e009000d3
:1009e000f07f200080806000f07f200000806000a9
:1009f0004201dd000118800030002e000080600000
:100a00000200700000188800530037000000eb005f
:100a1000401888009e009000f07f200080806000d9
:100a2000f07f2000008060004201dd00411880005e
:100a300030002e0000806000020070004018880026
:100a4000450037000000eb00801888009e009000f1
:100a5000f07f200080806000f07f20000080600038
:100a60004201dd008118800030002e00008060000f
:100a70000200700080188800370037000000eb008b
:100a8000c01888009e009000f07f200080806000e9
:100a9000f07f2000008060004201dd00c11880006e
:100aa00030002e000080600002007000c018880036
:100ab000290037000000eb00001988009e0090001c
:100ac000f07f200080806000f07f200000806000c8
:100ad0004201dd000119800030002e00008060001e
:100ae00002007000001988001b0037000000eb00b6
:100af000401988009e009000f07f200080806000f8
:100b0000f07f2000008060004201dd00411980007c
:100b100030002e0000806000020070004019880044
:100b20000d0037000000eb00001888009e009000c8
:100b3000f07f200080806000f07f20000080600057
:100b40004201dd000118800030002e0000806000ae
:100b500002007000001888000080fa000000060003
:100b60000800fa00004f7800120798002307980049
:100b70001e80fb00300798003e0090000000e0005f
:100b8000040032003e009000e10f50000f003200e0
:100b90001c00370010002000801988009e00900083
:100ba000f07f200080806000f07f200000806000e7
:100bb0004201dd008119800030002e0000806000bd
:100bc00002007000801988001b0037001000200010
:100bd000c01988009e009000f07f20008080600097
:100be000f07f2000008060004201dd00c11980001c
:100bf00030002e000080600002007000c0198800e4
:100c00000d00370010002000801988009e00900021
:100c1000f07f200080806000f07f20000080600076
:100c20004201dd008119800030002e00008060004c
:100c300002007000801988000080fa0000000600a1
:100c40000600fa00004f7800114798001e409000ff
:100c5000404798004e409000e34f5000020036009d
:100c600030c0b300404798004e40900010479800b5
:100c70001e80fb00100798001e009000e10f50003e
:100c8000110032001e009000e20f500018003200e8
:100c90001e0090000000e000010032001d0037003f
:100ca0001e4090006340600063416000e136200018
:100cb00091407800c0cfb30000c0600002407000d7
:100cc0006ee3b700130037001e40900063406000e1
:100cd00063416000e135200091407800c0cfb3004f
:100ce00000c06000024070005ee3b70009003700fa
:100cf0001e4090006340600063416000e1342000ca
:100d000091407800c0cfb30000c060000240700086
:100d10004ee3b7000080fa00000006000c00fa0065
:100d2000200798002e0090001000be008000780080
:100d3000007c2000008060004501dd002e00900056
:100d40001000be0080007800f003200000806000ea
:100d50004200dd00000f71003201070020479800bb
:100d60002e4090000080fb00500798005e0090002d
:100d7000e10f50000a0032005e009000e20f5000c8
:100d80000a0032005e0090000000e0000100320026
:100d9000090037001e007800001b8800080037009b
:100da0001e007800801a8800050037001e007800b9
:100db000001a8800020037001e007800001b88001f
:100dc0000000eb00000f7800350037002e40900047
:100dd0000080fb00400798004e009000e10f50009b
:100de000110032004e009000e20f50001800320057
:100df0004e0090000000e000010032001e003700ad
:100e00009e00780060362000008140001e007800bf
:100e1000ae009000640040000100400010409000cf
:100e2000004978001d0037009e00780060352000e2
:100e3000008140001e007800ae0090006400400079
:100e40000100400010409000004978001300370076
:100e50009e00780060342000008140001e00780071
:100e6000ae0090006400400001004000104090007f
:100e700000497800090037009e00780060362000a5
:100e8000008140001e007800ae0090006400400029
:100e90000100400010409000004978001e0fe8005b
:100ea0002e009000404090000080fb009e0f5000fc
:100eb000c6ff3e002e4090000080fb0030079800e7
:100ec0003e009000e10f5000160032003e009000fe
:100ed000e20f5000220032003e0090000000e000cf
:100ee000010032002c00370000182000201b880071
:100ef0002e009000404090006f4060006f40600006
:100f00004301dd00413620009140780070c8b300f5
:100f100000c060000240700064e3b7006e63a80088
:100f20001d00370000182000a01a88002e00900035
:100f3000404090006f4060006f4060004301dd0062
:100f4000413520009140780070c8b30000c06000b7
:100f50000240700054e3b7005e63a8000e00370043
:100f600000182000201a88002e00900040409000b9
:100f70006f4060006f4060004301dd00413420009d
:100f80009140780070c8b30000c06000024070005b
:100f900044e3b7004e63a8000080fa00000006009a
:100fa0001c00fa00100f98000040eb00005798005a
:100fb000001c80004200de0001002000c200dd00b5
:100fc000000020006007980071079800101c800046
:100fd0004600dd00010020004007980051079800fe
:100fe000201c80004a00de0001002000200798003d
:100ff000310798006e019000fe0190004e009000b5
:10100000de00900000017100818171002e009000cf
:10101000be009000001f710001977100e1382000b0
:101020009140780000c8b30000c060000004e000f8
:10103000030032000040eb00005798000700370023
:101040007ec3bf0001c8b300014060000004e0009f
:101050000200320010c0b300005798000e509000fc
:10106000e14f4000640032000e5090000080fb0011
:10107000500f98005e0890000000e000040032006d
:101080005e099000e10f51000a0032001f00370096
:101090001e0890001e01be000288be0084c3bf006f
:1010a0006f406000804078001e089000414098002a
:1010b00016003700801b80004200de000100200087
:1010c000c201dd0002002000901b80004600dd0010
:1010d000010020000001710081817100a01b8000cf
:1010e0004a00de00010020000000710081807100d4
:1010f0001e0990000089be0074c3bf006f406000ed
:10110000804078001e089000414098000040eb00ad
:1011100010579800260037000e5090000080fb000a
:10112000400f9800ce0990000300e0000400320058
:101130004e089000e10f50000e00320019003700f9
:101140001e5090008081fb001e5090000080fb002c
:101150008000780060382000008040001041780056
:101160009e089000648041000100400012409800f9
:101170000c0037001e5090008081fb001e50900034
:101180000080fb0080007800603720000080400075
:10119000104178009e0890006480410001004000ea
:1011a000124098001e5090000040e8001057980030
:1011b0001e089000c04090001e50900080cf50004c
:1011c000d5ff3e000e5090000080fb00300f9800cd
:1011d0003e0990000200e00004003200be099000c9
:1011e000e18f510003003200030037008ee3a900b5
:1011f000010037007ee3a9000e509000e14f40004f
:101200000300320010002000200f98000200370079
:101210000001eb00220f98002e0890000080fa00d9
:10122000000006000200fa000040eb00004f7800ca
:101230006ec3bf00684060000004e00003003a0095
:101240000040eb00004f78000d0037005ec3bf0088
:10125000684060000004e00003003a0010c0b300e2
:10126000004f7800060037004ec3bf0068406000a2
:101270000004e00002003a0020c0b300004f7800f4
:101280001e80fb000080fa00000006000400fa0047
:10129000008fbe00003c2c00901688000200200049
:1012a00003f823001e00be001ffc07007cfc0700a3
:1012b000600888000200200003f823001e00be0022
:1012c00019fc070076fc0700700888000111200057
:1012d00091407800f0ccb30000c0600010e1b7008e
:1012e0002111200091407800f0ccb30000c06000d4
:1012f00012e1b70002002000030824001e00be0017
:1013000082fc070066fc070030088800020020000d
:10131000030024001e00be007cfc070060fc0700e8
:101320005008880011e1a80013e1a8009061a9000d
:101330009661a8009c61a900a261a8000080fa0043
:10134000000006000a00fa00008fbe002207980085
:1013500033079800440798004e009000e50f5000b6
:1013600012003a00011920009140780080cfb300ac
:1013700000c060005040b30090e1b7000000eb00f7
:10138000700c88002e019000be0190001e00be006f
:10139000a0fc070002002000832c24005bfc070057
:1013a0003ffc0700600c88003e0037004e009000b4
:1013b000e60f500012003a006119200091407800b9
:1013c00080cfb30000c060005040b30096e1b7008a
:1013d0000000eb00a00c88002e019000be019000e0
:1013e0001e00be008bfc070002002000832c24009e
:1013f00046fc07002afc0700900c880029003700f3
:101400004e009000e70f500012003a00c119200072
:101410009140780080cfb30000c060005040b3001e
:101420009ce1b7000000eb00d00c88002e0190007a
:10143000be0190001e00be0076fc070002002000e6
:10144000832c240031fc070015fc0700c00c880029
:10145000140037004e009000e80f500011003a00d1
:10146000211a20009140780080cfb30000c06000b6
:101470005040b300a2e1b7000000eb00000d88006f
:101480002e019000be0190001e00be0061fc07000e
:1014900002002000832c24001cfc070000fc070035
:1014a000f00c88000080fa00000006000e00fa0030
:1014b000f4fc07006011b8000040eb00a8fd070035
:1014c0006011b8000040eb0025fd0700fdfc07009f
:1014d0001000200001002000008fbe0080c0b3007b
:1014e0004047980010c0b3005047980010c0b300a8
:1014f0006047980010c0b3007047980010c0b30058
:10150000004f980010c0b300104f980010c0b300f7
:10151000204f980010c0b300304f980010c0b300a7
:10152000404f9800008620009dfe0700a00020008c
:10153000bffc070000862000f8fd0700a000200087
:08154000bbfc0700f7ff3700b8
:020000040000fa
:10154800500800002000000000000000000000001b
:00000001FF
